{
  "contracts/StudentRegistry.sol": {
    "StudentRegistry": {
      "abi": [
        {
          "inputs": [],
          "stateMutability": "nonpayable",
          "type": "constructor"
        },
        {
          "anonymous": false,
          "inputs": [
            {
              "indexed": false,
              "internalType": "uint256",
              "name": "id",
              "type": "uint256"
            },
            {
              "indexed": false,
              "internalType": "string",
              "name": "name",
              "type": "string"
            },
            {
              "indexed": false,
              "internalType": "uint256",
              "name": "age",
              "type": "uint256"
            },
            {
              "indexed": false,
              "internalType": "string",
              "name": "course",
              "type": "string"
            }
          ],
          "name": "StudentAdded",
          "type": "event"
        },
        {
          "anonymous": false,
          "inputs": [
            {
              "indexed": false,
              "internalType": "uint256",
              "name": "id",
              "type": "uint256"
            }
          ],
          "name": "StudentDeleted",
          "type": "event"
        },
        {
          "anonymous": false,
          "inputs": [
            {
              "indexed": false,
              "internalType": "uint256",
              "name": "id",
              "type": "uint256"
            },
            {
              "indexed": false,
              "internalType": "string",
              "name": "name",
              "type": "string"
            },
            {
              "indexed": false,
              "internalType": "uint256",
              "name": "age",
              "type": "uint256"
            },
            {
              "indexed": false,
              "internalType": "string",
              "name": "course",
              "type": "string"
            }
          ],
          "name": "StudentUpdated",
          "type": "event"
        },
        {
          "inputs": [
            {
              "internalType": "string",
              "name": "_name",
              "type": "string"
            },
            {
              "internalType": "uint256",
              "name": "_age",
              "type": "uint256"
            },
            {
              "internalType": "string",
              "name": "_course",
              "type": "string"
            }
          ],
          "name": "addStudent",
          "outputs": [],
          "stateMutability": "nonpayable",
          "type": "function"
        },
        {
          "inputs": [
            {
              "internalType": "uint256",
              "name": "_id",
              "type": "uint256"
            }
          ],
          "name": "deleteStudent",
          "outputs": [],
          "stateMutability": "nonpayable",
          "type": "function"
        },
        {
          "inputs": [],
          "name": "getAllStudents",
          "outputs": [
            {
              "components": [
                {
                  "internalType": "uint256",
                  "name": "id",
                  "type": "uint256"
                },
                {
                  "internalType": "string",
                  "name": "name",
                  "type": "string"
                },
                {
                  "internalType": "uint256",
                  "name": "age",
                  "type": "uint256"
                },
                {
                  "internalType": "string",
                  "name": "course",
                  "type": "string"
                },
                {
                  "internalType": "bool",
                  "name": "exists",
                  "type": "bool"
                }
              ],
              "internalType": "struct StudentRegistry.Student[]",
              "name": "",
              "type": "tuple[]"
            }
          ],
          "stateMutability": "view",
          "type": "function"
        },
        {
          "inputs": [
            {
              "internalType": "uint256",
              "name": "_id",
              "type": "uint256"
            }
          ],
          "name": "getStudent",
          "outputs": [
            {
              "internalType": "uint256",
              "name": "",
              "type": "uint256"
            },
            {
              "internalType": "string",
              "name": "",
              "type": "string"
            },
            {
              "internalType": "uint256",
              "name": "",
              "type": "uint256"
            },
            {
              "internalType": "string",
              "name": "",
              "type": "string"
            }
          ],
          "stateMutability": "view",
          "type": "function"
        },
        {
          "inputs": [],
          "name": "owner",
          "outputs": [
            {
              "internalType": "address",
              "name": "",
              "type": "address"
            }
          ],
          "stateMutability": "view",
          "type": "function"
        },
        {
          "inputs": [
            {
              "internalType": "uint256",
              "name": "_id",
              "type": "uint256"
            },
            {
              "internalType": "string",
              "name": "_name",
              "type": "string"
            },
            {
              "internalType": "uint256",
              "name": "_age",
              "type": "uint256"
            },
            {
              "internalType": "string",
              "name": "_course",
              "type": "string"
            }
          ],
          "name": "updateStudent",
          "outputs": [],
          "stateMutability": "nonpayable",
          "type": "function"
        }
      ],
      "evm": {
        "bytecode": {
          "linkReferences": {},
          "object": "6080604052348015600f57600080fd5b50336000806101000a81548173ffffffffffffffffffffffffffffffffffffffff021916908373ffffffffffffffffffffffffffffffffffffffff16021790555061167b8061005f6000396000f3fe608060405234801561001057600080fd5b50600436106100625760003560e01c8063642f9163146100675780638da5cb5b1461009a578063b645307d146100b8578063c11e15e4146100d4578063e9e30927146100f0578063ed32a8a11461010e575b600080fd5b610081600480360381019061007c9190610bf9565b61012a565b6040516100919493929190610cc5565b60405180910390f35b6100a261032e565b6040516100af9190610d59565b60405180910390f35b6100d260048036038101906100cd9190610bf9565b610352565b005b6100ee60048036038101906100e99190610ea9565b6104d7565b005b6100f861066e565b60405161010591906110fb565b60405180910390f35b6101286004803603810190610123919061111d565b610968565b005b60006060600060606001600086815260200190815260200160002060040160009054906101000a900460ff16610195576040517f08c379a000000000000000000000000000000000000000000000000000000000815260040161018c906111f4565b60405180910390fd5b6000600160008781526020019081526020016000206040518060a0016040529081600082015481526020016001820180546101cf90611243565b80601f01602080910402602001604051908101604052809291908181526020018280546101fb90611243565b80156102485780601f1061021d57610100808354040283529160200191610248565b820191906000526020600020905b81548152906001019060200180831161022b57829003601f168201915b505050505081526020016002820154815260200160038201805461026b90611243565b80601f016020809104026020016040519081016040528092919081815260200182805461029790611243565b80156102e45780601f106102b9576101008083540402835291602001916102e4565b820191906000526020600020905b8154815290600101906020018083116102c757829003601f168201915b505050505081526020016004820160009054906101000a900460ff161515151581525050905080600001518160200151826040015183606001519450945094509450509193509193565b60008054906101000a900473ffffffffffffffffffffffffffffffffffffffff1681565b60008054906101000a900473ffffffffffffffffffffffffffffffffffffffff1673ffffffffffffffffffffffffffffffffffffffff163373ffffffffffffffffffffffffffffffffffffffff16146103e0576040517f08c379a00000000000000000000000000000000000000000000000000000000081526004016103d7906112e6565b60405180910390fd5b6001600082815260200190815260200160002060040160009054906101000a900460ff16610443576040517f08c379a000000000000000000000000000000000000000000000000000000000815260040161043a906111f4565b60405180910390fd5b6001600082815260200190815260200160002060008082016000905560018201600061046f9190610b21565b60028201600090556003820160006104879190610b21565b6004820160006101000a81549060ff021916905550507f34de6b871245ed0a89b82912e8e5ee6d9c3104b3e5bb1d67a71ad7e68239e41c816040516104cc9190611306565b60405180910390a150565b60008054906101000a900473ffffffffffffffffffffffffffffffffffffffff1673ffffffffffffffffffffffffffffffffffffffff163373ffffffffffffffffffffffffffffffffffffffff1614610565576040517f08c379a000000000000000000000000000000000000000000000000000000000815260040161055c906112e6565b60405180910390fd5b6001600085815260200190815260200160002060040160009054906101000a900460ff166105c8576040517f08c379a00000000000000000000000000000000000000000000000000000000081526004016105bf906111f4565b60405180910390fd5b826001600086815260200190815260200160002060010190816105eb91906114cd565b508160016000868152602001908152602001600020600201819055508060016000868152602001908152602001600020600301908161062a91906114cd565b507ff30d7752a2712db61b6a69077c831c1aa4923cf1d2a6a8c6e5152aae9be883e2848484846040516106609493929190610cc5565b60405180910390a150505050565b60606000805b6002805490508110156106e45760016000600283815481106106995761069861159f565b5b9060005260206000200154815260200190815260200160002060040160009054906101000a900460ff16156106d75781806106d3906115fd565b9250505b8080600101915050610674565b5060008167ffffffffffffffff81111561070157610700610d7e565b5b60405190808252806020026020018201604052801561073a57816020015b610727610b61565b81526020019060019003908161071f5790505b5090506000805b60028054905081101561095e5760016000600283815481106107665761076561159f565b5b9060005260206000200154815260200190815260200160002060040160009054906101000a900460ff16156109515760016000600283815481106107ad576107ac61159f565b5b906000526020600020015481526020019081526020016000206040518060a0016040529081600082015481526020016001820180546107eb90611243565b80601f016020809104026020016040519081016040528092919081815260200182805461081790611243565b80156108645780601f1061083957610100808354040283529160200191610864565b820191906000526020600020905b81548152906001019060200180831161084757829003601f168201915b505050505081526020016002820154815260200160038201805461088790611243565b80601f01602080910402602001604051908101604052809291908181526020018280546108b390611243565b80156109005780601f106108d557610100808354040283529160200191610900565b820191906000526020600020905b8154815290600101906020018083116108e357829003601f168201915b505050505081526020016004820160009054906101000a900460ff1615151515815250508383815181106109375761093661159f565b5b6020026020010181905250818061094d906115fd565b9250505b8080600101915050610741565b5081935050505090565b60008054906101000a900473ffffffffffffffffffffffffffffffffffffffff1673ffffffffffffffffffffffffffffffffffffffff163373ffffffffffffffffffffffffffffffffffffffff16146109f6576040517f08c379a00000000000000000000000000000000000000000000000000000000081526004016109ed906112e6565b60405180910390fd5b600060035490506040518060a001604052808281526020018581526020018481526020018381526020016001151581525060016000838152602001908152602001600020600082015181600001556020820151816001019081610a5991906114cd565b50604082015181600201556060820151816003019081610a7991906114cd565b5060808201518160040160006101000a81548160ff021916908315150217905550905050600281908060018154018082558091505060019003906000526020600020016000909190919091505560036000815480929190610ad9906115fd565b91905055507f1be1384d0e46750bf3c73e3077bce8ea0c00b17ea89a797f35d39e43210f5fed81858585604051610b139493929190610cc5565b60405180910390a150505050565b508054610b2d90611243565b6000825580601f10610b3f5750610b5e565b601f016020900490600052602060002090810190610b5d9190610b92565b5b50565b6040518060a00160405280600081526020016060815260200160008152602001606081526020016000151581525090565b5b80821115610bab576000816000905550600101610b93565b5090565b6000604051905090565b600080fd5b600080fd5b6000819050919050565b610bd681610bc3565b8114610be157600080fd5b50565b600081359050610bf381610bcd565b92915050565b600060208284031215610c0f57610c0e610bb9565b5b6000610c1d84828501610be4565b91505092915050565b610c2f81610bc3565b82525050565b600081519050919050565b600082825260208201905092915050565b60005b83811015610c6f578082015181840152602081019050610c54565b60008484015250505050565b6000601f19601f8301169050919050565b6000610c9782610c35565b610ca18185610c40565b9350610cb1818560208601610c51565b610cba81610c7b565b840191505092915050565b6000608082019050610cda6000830187610c26565b8181036020830152610cec8186610c8c565b9050610cfb6040830185610c26565b8181036060830152610d0d8184610c8c565b905095945050505050565b600073ffffffffffffffffffffffffffffffffffffffff82169050919050565b6000610d4382610d18565b9050919050565b610d5381610d38565b82525050565b6000602082019050610d6e6000830184610d4a565b92915050565b600080fd5b600080fd5b7f4e487b7100000000000000000000000000000000000000000000000000000000600052604160045260246000fd5b610db682610c7b565b810181811067ffffffffffffffff82111715610dd557610dd4610d7e565b5b80604052505050565b6000610de8610baf565b9050610df48282610dad565b919050565b600067ffffffffffffffff821115610e1457610e13610d7e565b5b610e1d82610c7b565b9050602081019050919050565b82818337600083830152505050565b6000610e4c610e4784610df9565b610dde565b905082815260208101848484011115610e6857610e67610d79565b5b610e73848285610e2a565b509392505050565b600082601f830112610e9057610e8f610d74565b5b8135610ea0848260208601610e39565b91505092915050565b60008060008060808587031215610ec357610ec2610bb9565b5b6000610ed187828801610be4565b945050602085013567ffffffffffffffff811115610ef257610ef1610bbe565b5b610efe87828801610e7b565b9350506040610f0f87828801610be4565b925050606085013567ffffffffffffffff811115610f3057610f2f610bbe565b5b610f3c87828801610e7b565b91505092959194509250565b600081519050919050565b600082825260208201905092915050565b6000819050602082019050919050565b610f7d81610bc3565b82525050565b600082825260208201905092915050565b6000610f9f82610c35565b610fa98185610f83565b9350610fb9818560208601610c51565b610fc281610c7b565b840191505092915050565b60008115159050919050565b610fe281610fcd565b82525050565b600060a0830160008301516110006000860182610f74565b50602083015184820360208601526110188282610f94565b915050604083015161102d6040860182610f74565b50606083015184820360608601526110458282610f94565b915050608083015161105a6080860182610fd9565b508091505092915050565b60006110718383610fe8565b905092915050565b6000602082019050919050565b600061109182610f48565b61109b8185610f53565b9350836020820285016110ad85610f64565b8060005b858110156110e957848403895281516110ca8582611065565b94506110d583611079565b925060208a019950506001810190506110b1565b50829750879550505050505092915050565b600060208201905081810360008301526111158184611086565b905092915050565b60008060006060848603121561113657611135610bb9565b5b600084013567ffffffffffffffff81111561115457611153610bbe565b5b61116086828701610e7b565b935050602061117186828701610be4565b925050604084013567ffffffffffffffff81111561119257611191610bbe565b5b61119e86828701610e7b565b9150509250925092565b7f53747564656e7420646f6573206e6f7420657869737400000000000000000000600082015250565b60006111de601683610c40565b91506111e9826111a8565b602082019050919050565b6000602082019050818103600083015261120d816111d1565b9050919050565b7f4e487b7100000000000000000000000000000000000000000000000000000000600052602260045260246000fd5b6000600282049050600182168061125b57607f821691505b60208210810361126e5761126d611214565b5b50919050565b7f4e6f7420617574686f72697a65643a206f6e6c79206f776e657220287465616360008201527f686572292063616e20706572666f726d207468697320616374696f6e00000000602082015250565b60006112d0603c83610c40565b91506112db82611274565b604082019050919050565b600060208201905081810360008301526112ff816112c3565b9050919050565b600060208201905061131b6000830184610c26565b92915050565b60008190508160005260206000209050919050565b60006020601f8301049050919050565b600082821b905092915050565b6000600883026113837fffffffffffffffffffffffffffffffffffffffffffffffffffffffffffffffff82611346565b61138d8683611346565b95508019841693508086168417925050509392505050565b6000819050919050565b60006113ca6113c56113c084610bc3565b6113a5565b610bc3565b9050919050565b6000819050919050565b6113e4836113af565b6113f86113f0826113d1565b848454611353565b825550505050565b600090565b61140d611400565b6114188184846113db565b505050565b5b8181101561143c57611431600082611405565b60018101905061141e565b5050565b601f8211156114815761145281611321565b61145b84611336565b8101602085101561146a578190505b61147e61147685611336565b83018261141d565b50505b505050565b600082821c905092915050565b60006114a460001984600802611486565b1980831691505092915050565b60006114bd8383611493565b9150826002028217905092915050565b6114d682610c35565b67ffffffffffffffff8111156114ef576114ee610d7e565b5b6114f98254611243565b611504828285611440565b600060209050601f8311600181146115375760008415611525578287015190505b61152f85826114b1565b865550611597565b601f19841661154586611321565b60005b8281101561156d57848901518255600182019150602085019450602081019050611548565b8683101561158a5784890151611586601f891682611493565b8355505b6001600288020188555050505b505050505050565b7f4e487b7100000000000000000000000000000000000000000000000000000000600052603260045260246000fd5b7f4e487b7100000000000000000000000000000000000000000000000000000000600052601160045260246000fd5b600061160882610bc3565b91507fffffffffffffffffffffffffffffffffffffffffffffffffffffffffffffffff820361163a576116396115ce565b5b60018201905091905056fea2646970667358221220040f8a12c1fcb9f4cfbf5b2dec6bf7c8ed9b18b235c264d7c006cd7c4608c45764736f6c634300081c0033",
          "opcodes": "PUSH1 0x80 PUSH1 0x40 MSTORE CALLVALUE DUP1 ISZERO PUSH1 0xF JUMPI PUSH1 0x0 DUP1 REVERT JUMPDEST POP CALLER PUSH1 0x0 DUP1 PUSH2 0x100 EXP DUP2 SLOAD DUP2 PUSH20 0xFFFFFFFFFFFFFFFFFFFFFFFFFFFFFFFFFFFFFFFF MUL NOT AND SWAP1 DUP4 PUSH20 0xFFFFFFFFFFFFFFFFFFFFFFFFFFFFFFFFFFFFFFFF AND MUL OR SWAP1 SSTORE POP PUSH2 0x167B DUP1 PUSH2 0x5F PUSH1 0x0 CODECOPY PUSH1 0x0 RETURN INVALID PUSH1 0x80 PUSH1 0x40 MSTORE CALLVALUE DUP1 ISZERO PUSH2 0x10 JUMPI PUSH1 0x0 DUP1 REVERT JUMPDEST POP PUSH1 0x4 CALLDATASIZE LT PUSH2 0x62 JUMPI PUSH1 0x0 CALLDATALOAD PUSH1 0xE0 SHR DUP1 PUSH4 0x642F9163 EQ PUSH2 0x67 JUMPI DUP1 PUSH4 0x8DA5CB5B EQ PUSH2 0x9A JUMPI DUP1 PUSH4 0xB645307D EQ PUSH2 0xB8 JUMPI DUP1 PUSH4 0xC11E15E4 EQ PUSH2 0xD4 JUMPI DUP1 PUSH4 0xE9E30927 EQ PUSH2 0xF0 JUMPI DUP1 PUSH4 0xED32A8A1 EQ PUSH2 0x10E JUMPI JUMPDEST PUSH1 0x0 DUP1 REVERT JUMPDEST PUSH2 0x81 PUSH1 0x4 DUP1 CALLDATASIZE SUB DUP2 ADD SWAP1 PUSH2 0x7C SWAP2 SWAP1 PUSH2 0xBF9 JUMP JUMPDEST PUSH2 0x12A JUMP JUMPDEST PUSH1 0x40 MLOAD PUSH2 0x91 SWAP5 SWAP4 SWAP3 SWAP2 SWAP1 PUSH2 0xCC5 JUMP JUMPDEST PUSH1 0x40 MLOAD DUP1 SWAP2 SUB SWAP1 RETURN JUMPDEST PUSH2 0xA2 PUSH2 0x32E JUMP JUMPDEST PUSH1 0x40 MLOAD PUSH2 0xAF SWAP2 SWAP1 PUSH2 0xD59 JUMP JUMPDEST PUSH1 0x40 MLOAD DUP1 SWAP2 SUB SWAP1 RETURN JUMPDEST PUSH2 0xD2 PUSH1 0x4 DUP1 CALLDATASIZE SUB DUP2 ADD SWAP1 PUSH2 0xCD SWAP2 SWAP1 PUSH2 0xBF9 JUMP JUMPDEST PUSH2 0x352 JUMP JUMPDEST STOP JUMPDEST PUSH2 0xEE PUSH1 0x4 DUP1 CALLDATASIZE SUB DUP2 ADD SWAP1 PUSH2 0xE9 SWAP2 SWAP1 PUSH2 0xEA9 JUMP JUMPDEST PUSH2 0x4D7 JUMP JUMPDEST STOP JUMPDEST PUSH2 0xF8 PUSH2 0x66E JUMP JUMPDEST PUSH1 0x40 MLOAD PUSH2 0x105 SWAP2 SWAP1 PUSH2 0x10FB JUMP JUMPDEST PUSH1 0x40 MLOAD DUP1 SWAP2 SUB SWAP1 RETURN JUMPDEST PUSH2 0x128 PUSH1 0x4 DUP1 CALLDATASIZE SUB DUP2 ADD SWAP1 PUSH2 0x123 SWAP2 SWAP1 PUSH2 0x111D JUMP JUMPDEST PUSH2 0x968 JUMP JUMPDEST STOP JUMPDEST PUSH1 0x0 PUSH1 0x60 PUSH1 0x0 PUSH1 0x60 PUSH1 0x1 PUSH1 0x0 DUP7 DUP2 MSTORE PUSH1 0x20 ADD SWAP1 DUP2 MSTORE PUSH1 0x20 ADD PUSH1 0x0 KECCAK256 PUSH1 0x4 ADD PUSH1 0x0 SWAP1 SLOAD SWAP1 PUSH2 0x100 EXP SWAP1 DIV PUSH1 0xFF AND PUSH2 0x195 JUMPI PUSH1 0x40 MLOAD PUSH32 0x8C379A000000000000000000000000000000000000000000000000000000000 DUP2 MSTORE PUSH1 0x4 ADD PUSH2 0x18C SWAP1 PUSH2 0x11F4 JUMP JUMPDEST PUSH1 0x40 MLOAD DUP1 SWAP2 SUB SWAP1 REVERT JUMPDEST PUSH1 0x0 PUSH1 0x1 PUSH1 0x0 DUP8 DUP2 MSTORE PUSH1 0x20 ADD SWAP1 DUP2 MSTORE PUSH1 0x20 ADD PUSH1 0x0 KECCAK256 PUSH1 0x40 MLOAD DUP1 PUSH1 0xA0 ADD PUSH1 0x40 MSTORE SWAP1 DUP2 PUSH1 0x0 DUP3 ADD SLOAD DUP2 MSTORE PUSH1 0x20 ADD PUSH1 0x1 DUP3 ADD DUP1 SLOAD PUSH2 0x1CF SWAP1 PUSH2 0x1243 JUMP JUMPDEST DUP1 PUSH1 0x1F ADD PUSH1 0x20 DUP1 SWAP2 DIV MUL PUSH1 0x20 ADD PUSH1 0x40 MLOAD SWAP1 DUP2 ADD PUSH1 0x40 MSTORE DUP1 SWAP3 SWAP2 SWAP1 DUP2 DUP2 MSTORE PUSH1 0x20 ADD DUP3 DUP1 SLOAD PUSH2 0x1FB SWAP1 PUSH2 0x1243 JUMP JUMPDEST DUP1 ISZERO PUSH2 0x248 JUMPI DUP1 PUSH1 0x1F LT PUSH2 0x21D JUMPI PUSH2 0x100 DUP1 DUP4 SLOAD DIV MUL DUP4 MSTORE SWAP2 PUSH1 0x20 ADD SWAP2 PUSH2 0x248 JUMP JUMPDEST DUP3 ADD SWAP2 SWAP1 PUSH1 0x0 MSTORE PUSH1 0x20 PUSH1 0x0 KECCAK256 SWAP1 JUMPDEST DUP2 SLOAD DUP2 MSTORE SWAP1 PUSH1 0x1 ADD SWAP1 PUSH1 0x20 ADD DUP1 DUP4 GT PUSH2 0x22B JUMPI DUP3 SWAP1 SUB PUSH1 0x1F AND DUP3 ADD SWAP2 JUMPDEST POP POP POP POP POP DUP2 MSTORE PUSH1 0x20 ADD PUSH1 0x2 DUP3 ADD SLOAD DUP2 MSTORE PUSH1 0x20 ADD PUSH1 0x3 DUP3 ADD DUP1 SLOAD PUSH2 0x26B SWAP1 PUSH2 0x1243 JUMP JUMPDEST DUP1 PUSH1 0x1F ADD PUSH1 0x20 DUP1 SWAP2 DIV MUL PUSH1 0x20 ADD PUSH1 0x40 MLOAD SWAP1 DUP2 ADD PUSH1 0x40 MSTORE DUP1 SWAP3 SWAP2 SWAP1 DUP2 DUP2 MSTORE PUSH1 0x20 ADD DUP3 DUP1 SLOAD PUSH2 0x297 SWAP1 PUSH2 0x1243 JUMP JUMPDEST DUP1 ISZERO PUSH2 0x2E4 JUMPI DUP1 PUSH1 0x1F LT PUSH2 0x2B9 JUMPI PUSH2 0x100 DUP1 DUP4 SLOAD DIV MUL DUP4 MSTORE SWAP2 PUSH1 0x20 ADD SWAP2 PUSH2 0x2E4 JUMP JUMPDEST DUP3 ADD SWAP2 SWAP1 PUSH1 0x0 MSTORE PUSH1 0x20 PUSH1 0x0 KECCAK256 SWAP1 JUMPDEST DUP2 SLOAD DUP2 MSTORE SWAP1 PUSH1 0x1 ADD SWAP1 PUSH1 0x20 ADD DUP1 DUP4 GT PUSH2 0x2C7 JUMPI DUP3 SWAP1 SUB PUSH1 0x1F AND DUP3 ADD SWAP2 JUMPDEST POP POP POP POP POP DUP2 MSTORE PUSH1 0x20 ADD PUSH1 0x4 DUP3 ADD PUSH1 0x0 SWAP1 SLOAD SWAP1 PUSH2 0x100 EXP SWAP1 DIV PUSH1 0xFF AND ISZERO ISZERO ISZERO ISZERO DUP2 MSTORE POP POP SWAP1 POP DUP1 PUSH1 0x0 ADD MLOAD DUP2 PUSH1 0x20 ADD MLOAD DUP3 PUSH1 0x40 ADD MLOAD DUP4 PUSH1 0x60 ADD MLOAD SWAP5 POP SWAP5 POP SWAP5 POP SWAP5 POP POP SWAP2 SWAP4 POP SWAP2 SWAP4 JUMP JUMPDEST PUSH1 0x0 DUP1 SLOAD SWAP1 PUSH2 0x100 EXP SWAP1 DIV PUSH20 0xFFFFFFFFFFFFFFFFFFFFFFFFFFFFFFFFFFFFFFFF AND DUP2 JUMP JUMPDEST PUSH1 0x0 DUP1 SLOAD SWAP1 PUSH2 0x100 EXP SWAP1 DIV PUSH20 0xFFFFFFFFFFFFFFFFFFFFFFFFFFFFFFFFFFFFFFFF AND PUSH20 0xFFFFFFFFFFFFFFFFFFFFFFFFFFFFFFFFFFFFFFFF AND CALLER PUSH20 0xFFFFFFFFFFFFFFFFFFFFFFFFFFFFFFFFFFFFFFFF AND EQ PUSH2 0x3E0 JUMPI PUSH1 0x40 MLOAD PUSH32 0x8C379A000000000000000000000000000000000000000000000000000000000 DUP2 MSTORE PUSH1 0x4 ADD PUSH2 0x3D7 SWAP1 PUSH2 0x12E6 JUMP JUMPDEST PUSH1 0x40 MLOAD DUP1 SWAP2 SUB SWAP1 REVERT JUMPDEST PUSH1 0x1 PUSH1 0x0 DUP3 DUP2 MSTORE PUSH1 0x20 ADD SWAP1 DUP2 MSTORE PUSH1 0x20 ADD PUSH1 0x0 KECCAK256 PUSH1 0x4 ADD PUSH1 0x0 SWAP1 SLOAD SWAP1 PUSH2 0x100 EXP SWAP1 DIV PUSH1 0xFF AND PUSH2 0x443 JUMPI PUSH1 0x40 MLOAD PUSH32 0x8C379A000000000000000000000000000000000000000000000000000000000 DUP2 MSTORE PUSH1 0x4 ADD PUSH2 0x43A SWAP1 PUSH2 0x11F4 JUMP JUMPDEST PUSH1 0x40 MLOAD DUP1 SWAP2 SUB SWAP1 REVERT JUMPDEST PUSH1 0x1 PUSH1 0x0 DUP3 DUP2 MSTORE PUSH1 0x20 ADD SWAP1 DUP2 MSTORE PUSH1 0x20 ADD PUSH1 0x0 KECCAK256 PUSH1 0x0 DUP1 DUP3 ADD PUSH1 0x0 SWAP1 SSTORE PUSH1 0x1 DUP3 ADD PUSH1 0x0 PUSH2 0x46F SWAP2 SWAP1 PUSH2 0xB21 JUMP JUMPDEST PUSH1 0x2 DUP3 ADD PUSH1 0x0 SWAP1 SSTORE PUSH1 0x3 DUP3 ADD PUSH1 0x0 PUSH2 0x487 SWAP2 SWAP1 PUSH2 0xB21 JUMP JUMPDEST PUSH1 0x4 DUP3 ADD PUSH1 0x0 PUSH2 0x100 EXP DUP2 SLOAD SWAP1 PUSH1 0xFF MUL NOT AND SWAP1 SSTORE POP POP PUSH32 0x34DE6B871245ED0A89B82912E8E5EE6D9C3104B3E5BB1D67A71AD7E68239E41C DUP2 PUSH1 0x40 MLOAD PUSH2 0x4CC SWAP2 SWAP1 PUSH2 0x1306 JUMP JUMPDEST PUSH1 0x40 MLOAD DUP1 SWAP2 SUB SWAP1 LOG1 POP JUMP JUMPDEST PUSH1 0x0 DUP1 SLOAD SWAP1 PUSH2 0x100 EXP SWAP1 DIV PUSH20 0xFFFFFFFFFFFFFFFFFFFFFFFFFFFFFFFFFFFFFFFF AND PUSH20 0xFFFFFFFFFFFFFFFFFFFFFFFFFFFFFFFFFFFFFFFF AND CALLER PUSH20 0xFFFFFFFFFFFFFFFFFFFFFFFFFFFFFFFFFFFFFFFF AND EQ PUSH2 0x565 JUMPI PUSH1 0x40 MLOAD PUSH32 0x8C379A000000000000000000000000000000000000000000000000000000000 DUP2 MSTORE PUSH1 0x4 ADD PUSH2 0x55C SWAP1 PUSH2 0x12E6 JUMP JUMPDEST PUSH1 0x40 MLOAD DUP1 SWAP2 SUB SWAP1 REVERT JUMPDEST PUSH1 0x1 PUSH1 0x0 DUP6 DUP2 MSTORE PUSH1 0x20 ADD SWAP1 DUP2 MSTORE PUSH1 0x20 ADD PUSH1 0x0 KECCAK256 PUSH1 0x4 ADD PUSH1 0x0 SWAP1 SLOAD SWAP1 PUSH2 0x100 EXP SWAP1 DIV PUSH1 0xFF AND PUSH2 0x5C8 JUMPI PUSH1 0x40 MLOAD PUSH32 0x8C379A000000000000000000000000000000000000000000000000000000000 DUP2 MSTORE PUSH1 0x4 ADD PUSH2 0x5BF SWAP1 PUSH2 0x11F4 JUMP JUMPDEST PUSH1 0x40 MLOAD DUP1 SWAP2 SUB SWAP1 REVERT JUMPDEST DUP3 PUSH1 0x1 PUSH1 0x0 DUP7 DUP2 MSTORE PUSH1 0x20 ADD SWAP1 DUP2 MSTORE PUSH1 0x20 ADD PUSH1 0x0 KECCAK256 PUSH1 0x1 ADD SWAP1 DUP2 PUSH2 0x5EB SWAP2 SWAP1 PUSH2 0x14CD JUMP JUMPDEST POP DUP2 PUSH1 0x1 PUSH1 0x0 DUP7 DUP2 MSTORE PUSH1 0x20 ADD SWAP1 DUP2 MSTORE PUSH1 0x20 ADD PUSH1 0x0 KECCAK256 PUSH1 0x2 ADD DUP2 SWAP1 SSTORE POP DUP1 PUSH1 0x1 PUSH1 0x0 DUP7 DUP2 MSTORE PUSH1 0x20 ADD SWAP1 DUP2 MSTORE PUSH1 0x20 ADD PUSH1 0x0 KECCAK256 PUSH1 0x3 ADD SWAP1 DUP2 PUSH2 0x62A SWAP2 SWAP1 PUSH2 0x14CD JUMP JUMPDEST POP PUSH32 0xF30D7752A2712DB61B6A69077C831C1AA4923CF1D2A6A8C6E5152AAE9BE883E2 DUP5 DUP5 DUP5 DUP5 PUSH1 0x40 MLOAD PUSH2 0x660 SWAP5 SWAP4 SWAP3 SWAP2 SWAP1 PUSH2 0xCC5 JUMP JUMPDEST PUSH1 0x40 MLOAD DUP1 SWAP2 SUB SWAP1 LOG1 POP POP POP POP JUMP JUMPDEST PUSH1 0x60 PUSH1 0x0 DUP1 JUMPDEST PUSH1 0x2 DUP1 SLOAD SWAP1 POP DUP2 LT ISZERO PUSH2 0x6E4 JUMPI PUSH1 0x1 PUSH1 0x0 PUSH1 0x2 DUP4 DUP2 SLOAD DUP2 LT PUSH2 0x699 JUMPI PUSH2 0x698 PUSH2 0x159F JUMP JUMPDEST JUMPDEST SWAP1 PUSH1 0x0 MSTORE PUSH1 0x20 PUSH1 0x0 KECCAK256 ADD SLOAD DUP2 MSTORE PUSH1 0x20 ADD SWAP1 DUP2 MSTORE PUSH1 0x20 ADD PUSH1 0x0 KECCAK256 PUSH1 0x4 ADD PUSH1 0x0 SWAP1 SLOAD SWAP1 PUSH2 0x100 EXP SWAP1 DIV PUSH1 0xFF AND ISZERO PUSH2 0x6D7 JUMPI DUP2 DUP1 PUSH2 0x6D3 SWAP1 PUSH2 0x15FD JUMP JUMPDEST SWAP3 POP POP JUMPDEST DUP1 DUP1 PUSH1 0x1 ADD SWAP2 POP POP PUSH2 0x674 JUMP JUMPDEST POP PUSH1 0x0 DUP2 PUSH8 0xFFFFFFFFFFFFFFFF DUP2 GT ISZERO PUSH2 0x701 JUMPI PUSH2 0x700 PUSH2 0xD7E JUMP JUMPDEST JUMPDEST PUSH1 0x40 MLOAD SWAP1 DUP1 DUP3 MSTORE DUP1 PUSH1 0x20 MUL PUSH1 0x20 ADD DUP3 ADD PUSH1 0x40 MSTORE DUP1 ISZERO PUSH2 0x73A JUMPI DUP2 PUSH1 0x20 ADD JUMPDEST PUSH2 0x727 PUSH2 0xB61 JUMP JUMPDEST DUP2 MSTORE PUSH1 0x20 ADD SWAP1 PUSH1 0x1 SWAP1 SUB SWAP1 DUP2 PUSH2 0x71F JUMPI SWAP1 POP JUMPDEST POP SWAP1 POP PUSH1 0x0 DUP1 JUMPDEST PUSH1 0x2 DUP1 SLOAD SWAP1 POP DUP2 LT ISZERO PUSH2 0x95E JUMPI PUSH1 0x1 PUSH1 0x0 PUSH1 0x2 DUP4 DUP2 SLOAD DUP2 LT PUSH2 0x766 JUMPI PUSH2 0x765 PUSH2 0x159F JUMP JUMPDEST JUMPDEST SWAP1 PUSH1 0x0 MSTORE PUSH1 0x20 PUSH1 0x0 KECCAK256 ADD SLOAD DUP2 MSTORE PUSH1 0x20 ADD SWAP1 DUP2 MSTORE PUSH1 0x20 ADD PUSH1 0x0 KECCAK256 PUSH1 0x4 ADD PUSH1 0x0 SWAP1 SLOAD SWAP1 PUSH2 0x100 EXP SWAP1 DIV PUSH1 0xFF AND ISZERO PUSH2 0x951 JUMPI PUSH1 0x1 PUSH1 0x0 PUSH1 0x2 DUP4 DUP2 SLOAD DUP2 LT PUSH2 0x7AD JUMPI PUSH2 0x7AC PUSH2 0x159F JUMP JUMPDEST JUMPDEST SWAP1 PUSH1 0x0 MSTORE PUSH1 0x20 PUSH1 0x0 KECCAK256 ADD SLOAD DUP2 MSTORE PUSH1 0x20 ADD SWAP1 DUP2 MSTORE PUSH1 0x20 ADD PUSH1 0x0 KECCAK256 PUSH1 0x40 MLOAD DUP1 PUSH1 0xA0 ADD PUSH1 0x40 MSTORE SWAP1 DUP2 PUSH1 0x0 DUP3 ADD SLOAD DUP2 MSTORE PUSH1 0x20 ADD PUSH1 0x1 DUP3 ADD DUP1 SLOAD PUSH2 0x7EB SWAP1 PUSH2 0x1243 JUMP JUMPDEST DUP1 PUSH1 0x1F ADD PUSH1 0x20 DUP1 SWAP2 DIV MUL PUSH1 0x20 ADD PUSH1 0x40 MLOAD SWAP1 DUP2 ADD PUSH1 0x40 MSTORE DUP1 SWAP3 SWAP2 SWAP1 DUP2 DUP2 MSTORE PUSH1 0x20 ADD DUP3 DUP1 SLOAD PUSH2 0x817 SWAP1 PUSH2 0x1243 JUMP JUMPDEST DUP1 ISZERO PUSH2 0x864 JUMPI DUP1 PUSH1 0x1F LT PUSH2 0x839 JUMPI PUSH2 0x100 DUP1 DUP4 SLOAD DIV MUL DUP4 MSTORE SWAP2 PUSH1 0x20 ADD SWAP2 PUSH2 0x864 JUMP JUMPDEST DUP3 ADD SWAP2 SWAP1 PUSH1 0x0 MSTORE PUSH1 0x20 PUSH1 0x0 KECCAK256 SWAP1 JUMPDEST DUP2 SLOAD DUP2 MSTORE SWAP1 PUSH1 0x1 ADD SWAP1 PUSH1 0x20 ADD DUP1 DUP4 GT PUSH2 0x847 JUMPI DUP3 SWAP1 SUB PUSH1 0x1F AND DUP3 ADD SWAP2 JUMPDEST POP POP POP POP POP DUP2 MSTORE PUSH1 0x20 ADD PUSH1 0x2 DUP3 ADD SLOAD DUP2 MSTORE PUSH1 0x20 ADD PUSH1 0x3 DUP3 ADD DUP1 SLOAD PUSH2 0x887 SWAP1 PUSH2 0x1243 JUMP JUMPDEST DUP1 PUSH1 0x1F ADD PUSH1 0x20 DUP1 SWAP2 DIV MUL PUSH1 0x20 ADD PUSH1 0x40 MLOAD SWAP1 DUP2 ADD PUSH1 0x40 MSTORE DUP1 SWAP3 SWAP2 SWAP1 DUP2 DUP2 MSTORE PUSH1 0x20 ADD DUP3 DUP1 SLOAD PUSH2 0x8B3 SWAP1 PUSH2 0x1243 JUMP JUMPDEST DUP1 ISZERO PUSH2 0x900 JUMPI DUP1 PUSH1 0x1F LT PUSH2 0x8D5 JUMPI PUSH2 0x100 DUP1 DUP4 SLOAD DIV MUL DUP4 MSTORE SWAP2 PUSH1 0x20 ADD SWAP2 PUSH2 0x900 JUMP JUMPDEST DUP3 ADD SWAP2 SWAP1 PUSH1 0x0 MSTORE PUSH1 0x20 PUSH1 0x0 KECCAK256 SWAP1 JUMPDEST DUP2 SLOAD DUP2 MSTORE SWAP1 PUSH1 0x1 ADD SWAP1 PUSH1 0x20 ADD DUP1 DUP4 GT PUSH2 0x8E3 JUMPI DUP3 SWAP1 SUB PUSH1 0x1F AND DUP3 ADD SWAP2 JUMPDEST POP POP POP POP POP DUP2 MSTORE PUSH1 0x20 ADD PUSH1 0x4 DUP3 ADD PUSH1 0x0 SWAP1 SLOAD SWAP1 PUSH2 0x100 EXP SWAP1 DIV PUSH1 0xFF AND ISZERO ISZERO ISZERO ISZERO DUP2 MSTORE POP POP DUP4 DUP4 DUP2 MLOAD DUP2 LT PUSH2 0x937 JUMPI PUSH2 0x936 PUSH2 0x159F JUMP JUMPDEST JUMPDEST PUSH1 0x20 MUL PUSH1 0x20 ADD ADD DUP2 SWAP1 MSTORE POP DUP2 DUP1 PUSH2 0x94D SWAP1 PUSH2 0x15FD JUMP JUMPDEST SWAP3 POP POP JUMPDEST DUP1 DUP1 PUSH1 0x1 ADD SWAP2 POP POP PUSH2 0x741 JUMP JUMPDEST POP DUP2 SWAP4 POP POP POP POP SWAP1 JUMP JUMPDEST PUSH1 0x0 DUP1 SLOAD SWAP1 PUSH2 0x100 EXP SWAP1 DIV PUSH20 0xFFFFFFFFFFFFFFFFFFFFFFFFFFFFFFFFFFFFFFFF AND PUSH20 0xFFFFFFFFFFFFFFFFFFFFFFFFFFFFFFFFFFFFFFFF AND CALLER PUSH20 0xFFFFFFFFFFFFFFFFFFFFFFFFFFFFFFFFFFFFFFFF AND EQ PUSH2 0x9F6 JUMPI PUSH1 0x40 MLOAD PUSH32 0x8C379A000000000000000000000000000000000000000000000000000000000 DUP2 MSTORE PUSH1 0x4 ADD PUSH2 0x9ED SWAP1 PUSH2 0x12E6 JUMP JUMPDEST PUSH1 0x40 MLOAD DUP1 SWAP2 SUB SWAP1 REVERT JUMPDEST PUSH1 0x0 PUSH1 0x3 SLOAD SWAP1 POP PUSH1 0x40 MLOAD DUP1 PUSH1 0xA0 ADD PUSH1 0x40 MSTORE DUP1 DUP3 DUP2 MSTORE PUSH1 0x20 ADD DUP6 DUP2 MSTORE PUSH1 0x20 ADD DUP5 DUP2 MSTORE PUSH1 0x20 ADD DUP4 DUP2 MSTORE PUSH1 0x20 ADD PUSH1 0x1 ISZERO ISZERO DUP2 MSTORE POP PUSH1 0x1 PUSH1 0x0 DUP4 DUP2 MSTORE PUSH1 0x20 ADD SWAP1 DUP2 MSTORE PUSH1 0x20 ADD PUSH1 0x0 KECCAK256 PUSH1 0x0 DUP3 ADD MLOAD DUP2 PUSH1 0x0 ADD SSTORE PUSH1 0x20 DUP3 ADD MLOAD DUP2 PUSH1 0x1 ADD SWAP1 DUP2 PUSH2 0xA59 SWAP2 SWAP1 PUSH2 0x14CD JUMP JUMPDEST POP PUSH1 0x40 DUP3 ADD MLOAD DUP2 PUSH1 0x2 ADD SSTORE PUSH1 0x60 DUP3 ADD MLOAD DUP2 PUSH1 0x3 ADD SWAP1 DUP2 PUSH2 0xA79 SWAP2 SWAP1 PUSH2 0x14CD JUMP JUMPDEST POP PUSH1 0x80 DUP3 ADD MLOAD DUP2 PUSH1 0x4 ADD PUSH1 0x0 PUSH2 0x100 EXP DUP2 SLOAD DUP2 PUSH1 0xFF MUL NOT AND SWAP1 DUP4 ISZERO ISZERO MUL OR SWAP1 SSTORE POP SWAP1 POP POP PUSH1 0x2 DUP2 SWAP1 DUP1 PUSH1 0x1 DUP2 SLOAD ADD DUP1 DUP3 SSTORE DUP1 SWAP2 POP POP PUSH1 0x1 SWAP1 SUB SWAP1 PUSH1 0x0 MSTORE PUSH1 0x20 PUSH1 0x0 KECCAK256 ADD PUSH1 0x0 SWAP1 SWAP2 SWAP1 SWAP2 SWAP1 SWAP2 POP SSTORE PUSH1 0x3 PUSH1 0x0 DUP2 SLOAD DUP1 SWAP3 SWAP2 SWAP1 PUSH2 0xAD9 SWAP1 PUSH2 0x15FD JUMP JUMPDEST SWAP2 SWAP1 POP SSTORE POP PUSH32 0x1BE1384D0E46750BF3C73E3077BCE8EA0C00B17EA89A797F35D39E43210F5FED DUP2 DUP6 DUP6 DUP6 PUSH1 0x40 MLOAD PUSH2 0xB13 SWAP5 SWAP4 SWAP3 SWAP2 SWAP1 PUSH2 0xCC5 JUMP JUMPDEST PUSH1 0x40 MLOAD DUP1 SWAP2 SUB SWAP1 LOG1 POP POP POP POP JUMP JUMPDEST POP DUP1 SLOAD PUSH2 0xB2D SWAP1 PUSH2 0x1243 JUMP JUMPDEST PUSH1 0x0 DUP3 SSTORE DUP1 PUSH1 0x1F LT PUSH2 0xB3F JUMPI POP PUSH2 0xB5E JUMP JUMPDEST PUSH1 0x1F ADD PUSH1 0x20 SWAP1 DIV SWAP1 PUSH1 0x0 MSTORE PUSH1 0x20 PUSH1 0x0 KECCAK256 SWAP1 DUP2 ADD SWAP1 PUSH2 0xB5D SWAP2 SWAP1 PUSH2 0xB92 JUMP JUMPDEST JUMPDEST POP JUMP JUMPDEST PUSH1 0x40 MLOAD DUP1 PUSH1 0xA0 ADD PUSH1 0x40 MSTORE DUP1 PUSH1 0x0 DUP2 MSTORE PUSH1 0x20 ADD PUSH1 0x60 DUP2 MSTORE PUSH1 0x20 ADD PUSH1 0x0 DUP2 MSTORE PUSH1 0x20 ADD PUSH1 0x60 DUP2 MSTORE PUSH1 0x20 ADD PUSH1 0x0 ISZERO ISZERO DUP2 MSTORE POP SWAP1 JUMP JUMPDEST JUMPDEST DUP1 DUP3 GT ISZERO PUSH2 0xBAB JUMPI PUSH1 0x0 DUP2 PUSH1 0x0 SWAP1 SSTORE POP PUSH1 0x1 ADD PUSH2 0xB93 JUMP JUMPDEST POP SWAP1 JUMP JUMPDEST PUSH1 0x0 PUSH1 0x40 MLOAD SWAP1 POP SWAP1 JUMP JUMPDEST PUSH1 0x0 DUP1 REVERT JUMPDEST PUSH1 0x0 DUP1 REVERT JUMPDEST PUSH1 0x0 DUP2 SWAP1 POP SWAP2 SWAP1 POP JUMP JUMPDEST PUSH2 0xBD6 DUP2 PUSH2 0xBC3 JUMP JUMPDEST DUP2 EQ PUSH2 0xBE1 JUMPI PUSH1 0x0 DUP1 REVERT JUMPDEST POP JUMP JUMPDEST PUSH1 0x0 DUP2 CALLDATALOAD SWAP1 POP PUSH2 0xBF3 DUP2 PUSH2 0xBCD JUMP JUMPDEST SWAP3 SWAP2 POP POP JUMP JUMPDEST PUSH1 0x0 PUSH1 0x20 DUP3 DUP5 SUB SLT ISZERO PUSH2 0xC0F JUMPI PUSH2 0xC0E PUSH2 0xBB9 JUMP JUMPDEST JUMPDEST PUSH1 0x0 PUSH2 0xC1D DUP5 DUP3 DUP6 ADD PUSH2 0xBE4 JUMP JUMPDEST SWAP2 POP POP SWAP3 SWAP2 POP POP JUMP JUMPDEST PUSH2 0xC2F DUP2 PUSH2 0xBC3 JUMP JUMPDEST DUP3 MSTORE POP POP JUMP JUMPDEST PUSH1 0x0 DUP2 MLOAD SWAP1 POP SWAP2 SWAP1 POP JUMP JUMPDEST PUSH1 0x0 DUP3 DUP3 MSTORE PUSH1 0x20 DUP3 ADD SWAP1 POP SWAP3 SWAP2 POP POP JUMP JUMPDEST PUSH1 0x0 JUMPDEST DUP4 DUP2 LT ISZERO PUSH2 0xC6F JUMPI DUP1 DUP3 ADD MLOAD DUP2 DUP5 ADD MSTORE PUSH1 0x20 DUP2 ADD SWAP1 POP PUSH2 0xC54 JUMP JUMPDEST PUSH1 0x0 DUP5 DUP5 ADD MSTORE POP POP POP POP JUMP JUMPDEST PUSH1 0x0 PUSH1 0x1F NOT PUSH1 0x1F DUP4 ADD AND SWAP1 POP SWAP2 SWAP1 POP JUMP JUMPDEST PUSH1 0x0 PUSH2 0xC97 DUP3 PUSH2 0xC35 JUMP JUMPDEST PUSH2 0xCA1 DUP2 DUP6 PUSH2 0xC40 JUMP JUMPDEST SWAP4 POP PUSH2 0xCB1 DUP2 DUP6 PUSH1 0x20 DUP7 ADD PUSH2 0xC51 JUMP JUMPDEST PUSH2 0xCBA DUP2 PUSH2 0xC7B JUMP JUMPDEST DUP5 ADD SWAP2 POP POP SWAP3 SWAP2 POP POP JUMP JUMPDEST PUSH1 0x0 PUSH1 0x80 DUP3 ADD SWAP1 POP PUSH2 0xCDA PUSH1 0x0 DUP4 ADD DUP8 PUSH2 0xC26 JUMP JUMPDEST DUP2 DUP2 SUB PUSH1 0x20 DUP4 ADD MSTORE PUSH2 0xCEC DUP2 DUP7 PUSH2 0xC8C JUMP JUMPDEST SWAP1 POP PUSH2 0xCFB PUSH1 0x40 DUP4 ADD DUP6 PUSH2 0xC26 JUMP JUMPDEST DUP2 DUP2 SUB PUSH1 0x60 DUP4 ADD MSTORE PUSH2 0xD0D DUP2 DUP5 PUSH2 0xC8C JUMP JUMPDEST SWAP1 POP SWAP6 SWAP5 POP POP POP POP POP JUMP JUMPDEST PUSH1 0x0 PUSH20 0xFFFFFFFFFFFFFFFFFFFFFFFFFFFFFFFFFFFFFFFF DUP3 AND SWAP1 POP SWAP2 SWAP1 POP JUMP JUMPDEST PUSH1 0x0 PUSH2 0xD43 DUP3 PUSH2 0xD18 JUMP JUMPDEST SWAP1 POP SWAP2 SWAP1 POP JUMP JUMPDEST PUSH2 0xD53 DUP2 PUSH2 0xD38 JUMP JUMPDEST DUP3 MSTORE POP POP JUMP JUMPDEST PUSH1 0x0 PUSH1 0x20 DUP3 ADD SWAP1 POP PUSH2 0xD6E PUSH1 0x0 DUP4 ADD DUP5 PUSH2 0xD4A JUMP JUMPDEST SWAP3 SWAP2 POP POP JUMP JUMPDEST PUSH1 0x0 DUP1 REVERT JUMPDEST PUSH1 0x0 DUP1 REVERT JUMPDEST PUSH32 0x4E487B7100000000000000000000000000000000000000000000000000000000 PUSH1 0x0 MSTORE PUSH1 0x41 PUSH1 0x4 MSTORE PUSH1 0x24 PUSH1 0x0 REVERT JUMPDEST PUSH2 0xDB6 DUP3 PUSH2 0xC7B JUMP JUMPDEST DUP2 ADD DUP2 DUP2 LT PUSH8 0xFFFFFFFFFFFFFFFF DUP3 GT OR ISZERO PUSH2 0xDD5 JUMPI PUSH2 0xDD4 PUSH2 0xD7E JUMP JUMPDEST JUMPDEST DUP1 PUSH1 0x40 MSTORE POP POP POP JUMP JUMPDEST PUSH1 0x0 PUSH2 0xDE8 PUSH2 0xBAF JUMP JUMPDEST SWAP1 POP PUSH2 0xDF4 DUP3 DUP3 PUSH2 0xDAD JUMP JUMPDEST SWAP2 SWAP1 POP JUMP JUMPDEST PUSH1 0x0 PUSH8 0xFFFFFFFFFFFFFFFF DUP3 GT ISZERO PUSH2 0xE14 JUMPI PUSH2 0xE13 PUSH2 0xD7E JUMP JUMPDEST JUMPDEST PUSH2 0xE1D DUP3 PUSH2 0xC7B JUMP JUMPDEST SWAP1 POP PUSH1 0x20 DUP2 ADD SWAP1 POP SWAP2 SWAP1 POP JUMP JUMPDEST DUP3 DUP2 DUP4 CALLDATACOPY PUSH1 0x0 DUP4 DUP4 ADD MSTORE POP POP POP JUMP JUMPDEST PUSH1 0x0 PUSH2 0xE4C PUSH2 0xE47 DUP5 PUSH2 0xDF9 JUMP JUMPDEST PUSH2 0xDDE JUMP JUMPDEST SWAP1 POP DUP3 DUP2 MSTORE PUSH1 0x20 DUP2 ADD DUP5 DUP5 DUP5 ADD GT ISZERO PUSH2 0xE68 JUMPI PUSH2 0xE67 PUSH2 0xD79 JUMP JUMPDEST JUMPDEST PUSH2 0xE73 DUP5 DUP3 DUP6 PUSH2 0xE2A JUMP JUMPDEST POP SWAP4 SWAP3 POP POP POP JUMP JUMPDEST PUSH1 0x0 DUP3 PUSH1 0x1F DUP4 ADD SLT PUSH2 0xE90 JUMPI PUSH2 0xE8F PUSH2 0xD74 JUMP JUMPDEST JUMPDEST DUP2 CALLDATALOAD PUSH2 0xEA0 DUP5 DUP3 PUSH1 0x20 DUP7 ADD PUSH2 0xE39 JUMP JUMPDEST SWAP2 POP POP SWAP3 SWAP2 POP POP JUMP JUMPDEST PUSH1 0x0 DUP1 PUSH1 0x0 DUP1 PUSH1 0x80 DUP6 DUP8 SUB SLT ISZERO PUSH2 0xEC3 JUMPI PUSH2 0xEC2 PUSH2 0xBB9 JUMP JUMPDEST JUMPDEST PUSH1 0x0 PUSH2 0xED1 DUP8 DUP3 DUP9 ADD PUSH2 0xBE4 JUMP JUMPDEST SWAP5 POP POP PUSH1 0x20 DUP6 ADD CALLDATALOAD PUSH8 0xFFFFFFFFFFFFFFFF DUP2 GT ISZERO PUSH2 0xEF2 JUMPI PUSH2 0xEF1 PUSH2 0xBBE JUMP JUMPDEST JUMPDEST PUSH2 0xEFE DUP8 DUP3 DUP9 ADD PUSH2 0xE7B JUMP JUMPDEST SWAP4 POP POP PUSH1 0x40 PUSH2 0xF0F DUP8 DUP3 DUP9 ADD PUSH2 0xBE4 JUMP JUMPDEST SWAP3 POP POP PUSH1 0x60 DUP6 ADD CALLDATALOAD PUSH8 0xFFFFFFFFFFFFFFFF DUP2 GT ISZERO PUSH2 0xF30 JUMPI PUSH2 0xF2F PUSH2 0xBBE JUMP JUMPDEST JUMPDEST PUSH2 0xF3C DUP8 DUP3 DUP9 ADD PUSH2 0xE7B JUMP JUMPDEST SWAP2 POP POP SWAP3 SWAP6 SWAP2 SWAP5 POP SWAP3 POP JUMP JUMPDEST PUSH1 0x0 DUP2 MLOAD SWAP1 POP SWAP2 SWAP1 POP JUMP JUMPDEST PUSH1 0x0 DUP3 DUP3 MSTORE PUSH1 0x20 DUP3 ADD SWAP1 POP SWAP3 SWAP2 POP POP JUMP JUMPDEST PUSH1 0x0 DUP2 SWAP1 POP PUSH1 0x20 DUP3 ADD SWAP1 POP SWAP2 SWAP1 POP JUMP JUMPDEST PUSH2 0xF7D DUP2 PUSH2 0xBC3 JUMP JUMPDEST DUP3 MSTORE POP POP JUMP JUMPDEST PUSH1 0x0 DUP3 DUP3 MSTORE PUSH1 0x20 DUP3 ADD SWAP1 POP SWAP3 SWAP2 POP POP JUMP JUMPDEST PUSH1 0x0 PUSH2 0xF9F DUP3 PUSH2 0xC35 JUMP JUMPDEST PUSH2 0xFA9 DUP2 DUP6 PUSH2 0xF83 JUMP JUMPDEST SWAP4 POP PUSH2 0xFB9 DUP2 DUP6 PUSH1 0x20 DUP7 ADD PUSH2 0xC51 JUMP JUMPDEST PUSH2 0xFC2 DUP2 PUSH2 0xC7B JUMP JUMPDEST DUP5 ADD SWAP2 POP POP SWAP3 SWAP2 POP POP JUMP JUMPDEST PUSH1 0x0 DUP2 ISZERO ISZERO SWAP1 POP SWAP2 SWAP1 POP JUMP JUMPDEST PUSH2 0xFE2 DUP2 PUSH2 0xFCD JUMP JUMPDEST DUP3 MSTORE POP POP JUMP JUMPDEST PUSH1 0x0 PUSH1 0xA0 DUP4 ADD PUSH1 0x0 DUP4 ADD MLOAD PUSH2 0x1000 PUSH1 0x0 DUP7 ADD DUP3 PUSH2 0xF74 JUMP JUMPDEST POP PUSH1 0x20 DUP4 ADD MLOAD DUP5 DUP3 SUB PUSH1 0x20 DUP7 ADD MSTORE PUSH2 0x1018 DUP3 DUP3 PUSH2 0xF94 JUMP JUMPDEST SWAP2 POP POP PUSH1 0x40 DUP4 ADD MLOAD PUSH2 0x102D PUSH1 0x40 DUP7 ADD DUP3 PUSH2 0xF74 JUMP JUMPDEST POP PUSH1 0x60 DUP4 ADD MLOAD DUP5 DUP3 SUB PUSH1 0x60 DUP7 ADD MSTORE PUSH2 0x1045 DUP3 DUP3 PUSH2 0xF94 JUMP JUMPDEST SWAP2 POP POP PUSH1 0x80 DUP4 ADD MLOAD PUSH2 0x105A PUSH1 0x80 DUP7 ADD DUP3 PUSH2 0xFD9 JUMP JUMPDEST POP DUP1 SWAP2 POP POP SWAP3 SWAP2 POP POP JUMP JUMPDEST PUSH1 0x0 PUSH2 0x1071 DUP4 DUP4 PUSH2 0xFE8 JUMP JUMPDEST SWAP1 POP SWAP3 SWAP2 POP POP JUMP JUMPDEST PUSH1 0x0 PUSH1 0x20 DUP3 ADD SWAP1 POP SWAP2 SWAP1 POP JUMP JUMPDEST PUSH1 0x0 PUSH2 0x1091 DUP3 PUSH2 0xF48 JUMP JUMPDEST PUSH2 0x109B DUP2 DUP6 PUSH2 0xF53 JUMP JUMPDEST SWAP4 POP DUP4 PUSH1 0x20 DUP3 MUL DUP6 ADD PUSH2 0x10AD DUP6 PUSH2 0xF64 JUMP JUMPDEST DUP1 PUSH1 0x0 JUMPDEST DUP6 DUP2 LT ISZERO PUSH2 0x10E9 JUMPI DUP5 DUP5 SUB DUP10 MSTORE DUP2 MLOAD PUSH2 0x10CA DUP6 DUP3 PUSH2 0x1065 JUMP JUMPDEST SWAP5 POP PUSH2 0x10D5 DUP4 PUSH2 0x1079 JUMP JUMPDEST SWAP3 POP PUSH1 0x20 DUP11 ADD SWAP10 POP POP PUSH1 0x1 DUP2 ADD SWAP1 POP PUSH2 0x10B1 JUMP JUMPDEST POP DUP3 SWAP8 POP DUP8 SWAP6 POP POP POP POP POP POP SWAP3 SWAP2 POP POP JUMP JUMPDEST PUSH1 0x0 PUSH1 0x20 DUP3 ADD SWAP1 POP DUP2 DUP2 SUB PUSH1 0x0 DUP4 ADD MSTORE PUSH2 0x1115 DUP2 DUP5 PUSH2 0x1086 JUMP JUMPDEST SWAP1 POP SWAP3 SWAP2 POP POP JUMP JUMPDEST PUSH1 0x0 DUP1 PUSH1 0x0 PUSH1 0x60 DUP5 DUP7 SUB SLT ISZERO PUSH2 0x1136 JUMPI PUSH2 0x1135 PUSH2 0xBB9 JUMP JUMPDEST JUMPDEST PUSH1 0x0 DUP5 ADD CALLDATALOAD PUSH8 0xFFFFFFFFFFFFFFFF DUP2 GT ISZERO PUSH2 0x1154 JUMPI PUSH2 0x1153 PUSH2 0xBBE JUMP JUMPDEST JUMPDEST PUSH2 0x1160 DUP7 DUP3 DUP8 ADD PUSH2 0xE7B JUMP JUMPDEST SWAP4 POP POP PUSH1 0x20 PUSH2 0x1171 DUP7 DUP3 DUP8 ADD PUSH2 0xBE4 JUMP JUMPDEST SWAP3 POP POP PUSH1 0x40 DUP5 ADD CALLDATALOAD PUSH8 0xFFFFFFFFFFFFFFFF DUP2 GT ISZERO PUSH2 0x1192 JUMPI PUSH2 0x1191 PUSH2 0xBBE JUMP JUMPDEST JUMPDEST PUSH2 0x119E DUP7 DUP3 DUP8 ADD PUSH2 0xE7B JUMP JUMPDEST SWAP2 POP POP SWAP3 POP SWAP3 POP SWAP3 JUMP JUMPDEST PUSH32 0x53747564656E7420646F6573206E6F7420657869737400000000000000000000 PUSH1 0x0 DUP3 ADD MSTORE POP JUMP JUMPDEST PUSH1 0x0 PUSH2 0x11DE PUSH1 0x16 DUP4 PUSH2 0xC40 JUMP JUMPDEST SWAP2 POP PUSH2 0x11E9 DUP3 PUSH2 0x11A8 JUMP JUMPDEST PUSH1 0x20 DUP3 ADD SWAP1 POP SWAP2 SWAP1 POP JUMP JUMPDEST PUSH1 0x0 PUSH1 0x20 DUP3 ADD SWAP1 POP DUP2 DUP2 SUB PUSH1 0x0 DUP4 ADD MSTORE PUSH2 0x120D DUP2 PUSH2 0x11D1 JUMP JUMPDEST SWAP1 POP SWAP2 SWAP1 POP JUMP JUMPDEST PUSH32 0x4E487B7100000000000000000000000000000000000000000000000000000000 PUSH1 0x0 MSTORE PUSH1 0x22 PUSH1 0x4 MSTORE PUSH1 0x24 PUSH1 0x0 REVERT JUMPDEST PUSH1 0x0 PUSH1 0x2 DUP3 DIV SWAP1 POP PUSH1 0x1 DUP3 AND DUP1 PUSH2 0x125B JUMPI PUSH1 0x7F DUP3 AND SWAP2 POP JUMPDEST PUSH1 0x20 DUP3 LT DUP2 SUB PUSH2 0x126E JUMPI PUSH2 0x126D PUSH2 0x1214 JUMP JUMPDEST JUMPDEST POP SWAP2 SWAP1 POP JUMP JUMPDEST PUSH32 0x4E6F7420617574686F72697A65643A206F6E6C79206F776E6572202874656163 PUSH1 0x0 DUP3 ADD MSTORE PUSH32 0x686572292063616E20706572666F726D207468697320616374696F6E00000000 PUSH1 0x20 DUP3 ADD MSTORE POP JUMP JUMPDEST PUSH1 0x0 PUSH2 0x12D0 PUSH1 0x3C DUP4 PUSH2 0xC40 JUMP JUMPDEST SWAP2 POP PUSH2 0x12DB DUP3 PUSH2 0x1274 JUMP JUMPDEST PUSH1 0x40 DUP3 ADD SWAP1 POP SWAP2 SWAP1 POP JUMP JUMPDEST PUSH1 0x0 PUSH1 0x20 DUP3 ADD SWAP1 POP DUP2 DUP2 SUB PUSH1 0x0 DUP4 ADD MSTORE PUSH2 0x12FF DUP2 PUSH2 0x12C3 JUMP JUMPDEST SWAP1 POP SWAP2 SWAP1 POP JUMP JUMPDEST PUSH1 0x0 PUSH1 0x20 DUP3 ADD SWAP1 POP PUSH2 0x131B PUSH1 0x0 DUP4 ADD DUP5 PUSH2 0xC26 JUMP JUMPDEST SWAP3 SWAP2 POP POP JUMP JUMPDEST PUSH1 0x0 DUP2 SWAP1 POP DUP2 PUSH1 0x0 MSTORE PUSH1 0x20 PUSH1 0x0 KECCAK256 SWAP1 POP SWAP2 SWAP1 POP JUMP JUMPDEST PUSH1 0x0 PUSH1 0x20 PUSH1 0x1F DUP4 ADD DIV SWAP1 POP SWAP2 SWAP1 POP JUMP JUMPDEST PUSH1 0x0 DUP3 DUP3 SHL SWAP1 POP SWAP3 SWAP2 POP POP JUMP JUMPDEST PUSH1 0x0 PUSH1 0x8 DUP4 MUL PUSH2 0x1383 PUSH32 0xFFFFFFFFFFFFFFFFFFFFFFFFFFFFFFFFFFFFFFFFFFFFFFFFFFFFFFFFFFFFFFFF DUP3 PUSH2 0x1346 JUMP JUMPDEST PUSH2 0x138D DUP7 DUP4 PUSH2 0x1346 JUMP JUMPDEST SWAP6 POP DUP1 NOT DUP5 AND SWAP4 POP DUP1 DUP7 AND DUP5 OR SWAP3 POP POP POP SWAP4 SWAP3 POP POP POP JUMP JUMPDEST PUSH1 0x0 DUP2 SWAP1 POP SWAP2 SWAP1 POP JUMP JUMPDEST PUSH1 0x0 PUSH2 0x13CA PUSH2 0x13C5 PUSH2 0x13C0 DUP5 PUSH2 0xBC3 JUMP JUMPDEST PUSH2 0x13A5 JUMP JUMPDEST PUSH2 0xBC3 JUMP JUMPDEST SWAP1 POP SWAP2 SWAP1 POP JUMP JUMPDEST PUSH1 0x0 DUP2 SWAP1 POP SWAP2 SWAP1 POP JUMP JUMPDEST PUSH2 0x13E4 DUP4 PUSH2 0x13AF JUMP JUMPDEST PUSH2 0x13F8 PUSH2 0x13F0 DUP3 PUSH2 0x13D1 JUMP JUMPDEST DUP5 DUP5 SLOAD PUSH2 0x1353 JUMP JUMPDEST DUP3 SSTORE POP POP POP POP JUMP JUMPDEST PUSH1 0x0 SWAP1 JUMP JUMPDEST PUSH2 0x140D PUSH2 0x1400 JUMP JUMPDEST PUSH2 0x1418 DUP2 DUP5 DUP5 PUSH2 0x13DB JUMP JUMPDEST POP POP POP JUMP JUMPDEST JUMPDEST DUP2 DUP2 LT ISZERO PUSH2 0x143C JUMPI PUSH2 0x1431 PUSH1 0x0 DUP3 PUSH2 0x1405 JUMP JUMPDEST PUSH1 0x1 DUP2 ADD SWAP1 POP PUSH2 0x141E JUMP JUMPDEST POP POP JUMP JUMPDEST PUSH1 0x1F DUP3 GT ISZERO PUSH2 0x1481 JUMPI PUSH2 0x1452 DUP2 PUSH2 0x1321 JUMP JUMPDEST PUSH2 0x145B DUP5 PUSH2 0x1336 JUMP JUMPDEST DUP2 ADD PUSH1 0x20 DUP6 LT ISZERO PUSH2 0x146A JUMPI DUP2 SWAP1 POP JUMPDEST PUSH2 0x147E PUSH2 0x1476 DUP6 PUSH2 0x1336 JUMP JUMPDEST DUP4 ADD DUP3 PUSH2 0x141D JUMP JUMPDEST POP POP JUMPDEST POP POP POP JUMP JUMPDEST PUSH1 0x0 DUP3 DUP3 SHR SWAP1 POP SWAP3 SWAP2 POP POP JUMP JUMPDEST PUSH1 0x0 PUSH2 0x14A4 PUSH1 0x0 NOT DUP5 PUSH1 0x8 MUL PUSH2 0x1486 JUMP JUMPDEST NOT DUP1 DUP4 AND SWAP2 POP POP SWAP3 SWAP2 POP POP JUMP JUMPDEST PUSH1 0x0 PUSH2 0x14BD DUP4 DUP4 PUSH2 0x1493 JUMP JUMPDEST SWAP2 POP DUP3 PUSH1 0x2 MUL DUP3 OR SWAP1 POP SWAP3 SWAP2 POP POP JUMP JUMPDEST PUSH2 0x14D6 DUP3 PUSH2 0xC35 JUMP JUMPDEST PUSH8 0xFFFFFFFFFFFFFFFF DUP2 GT ISZERO PUSH2 0x14EF JUMPI PUSH2 0x14EE PUSH2 0xD7E JUMP JUMPDEST JUMPDEST PUSH2 0x14F9 DUP3 SLOAD PUSH2 0x1243 JUMP JUMPDEST PUSH2 0x1504 DUP3 DUP3 DUP6 PUSH2 0x1440 JUMP JUMPDEST PUSH1 0x0 PUSH1 0x20 SWAP1 POP PUSH1 0x1F DUP4 GT PUSH1 0x1 DUP2 EQ PUSH2 0x1537 JUMPI PUSH1 0x0 DUP5 ISZERO PUSH2 0x1525 JUMPI DUP3 DUP8 ADD MLOAD SWAP1 POP JUMPDEST PUSH2 0x152F DUP6 DUP3 PUSH2 0x14B1 JUMP JUMPDEST DUP7 SSTORE POP PUSH2 0x1597 JUMP JUMPDEST PUSH1 0x1F NOT DUP5 AND PUSH2 0x1545 DUP7 PUSH2 0x1321 JUMP JUMPDEST PUSH1 0x0 JUMPDEST DUP3 DUP2 LT ISZERO PUSH2 0x156D JUMPI DUP5 DUP10 ADD MLOAD DUP3 SSTORE PUSH1 0x1 DUP3 ADD SWAP2 POP PUSH1 0x20 DUP6 ADD SWAP5 POP PUSH1 0x20 DUP2 ADD SWAP1 POP PUSH2 0x1548 JUMP JUMPDEST DUP7 DUP4 LT ISZERO PUSH2 0x158A JUMPI DUP5 DUP10 ADD MLOAD PUSH2 0x1586 PUSH1 0x1F DUP10 AND DUP3 PUSH2 0x1493 JUMP JUMPDEST DUP4 SSTORE POP JUMPDEST PUSH1 0x1 PUSH1 0x2 DUP9 MUL ADD DUP9 SSTORE POP POP POP JUMPDEST POP POP POP POP POP POP JUMP JUMPDEST PUSH32 0x4E487B7100000000000000000000000000000000000000000000000000000000 PUSH1 0x0 MSTORE PUSH1 0x32 PUSH1 0x4 MSTORE PUSH1 0x24 PUSH1 0x0 REVERT JUMPDEST PUSH32 0x4E487B7100000000000000000000000000000000000000000000000000000000 PUSH1 0x0 MSTORE PUSH1 0x11 PUSH1 0x4 MSTORE PUSH1 0x24 PUSH1 0x0 REVERT JUMPDEST PUSH1 0x0 PUSH2 0x1608 DUP3 PUSH2 0xBC3 JUMP JUMPDEST SWAP2 POP PUSH32 0xFFFFFFFFFFFFFFFFFFFFFFFFFFFFFFFFFFFFFFFFFFFFFFFFFFFFFFFFFFFFFFFF DUP3 SUB PUSH2 0x163A JUMPI PUSH2 0x1639 PUSH2 0x15CE JUMP JUMPDEST JUMPDEST PUSH1 0x1 DUP3 ADD SWAP1 POP SWAP2 SWAP1 POP JUMP INVALID LOG2 PUSH5 0x6970667358 0x22 SLT KECCAK256 DIV 0xF DUP11 SLT 0xC1 0xFC 0xB9 DELEGATECALL 0xCF 0xBF JUMPDEST 0x2D 0xEC PUSH12 0xF7C8ED9B18B235C264D7C006 0xCD PUSH29 0x4608C45764736F6C634300081C00330000000000000000000000000000 "
        },
        "methodIdentifiers": {
          "addStudent(string,uint256,string)": "ed32a8a1",
          "deleteStudent(uint256)": "b645307d",
          "getAllStudents()": "e9e30927",
          "getStudent(uint256)": "642f9163",
          "owner()": "8da5cb5b",
          "updateStudent(uint256,string,uint256,string)": "c11e15e4"
        }
      }
    }
  }
}